{
  "_format": "hh-sol-artifact-1",
  "contractName": "ReDAOIOUTokenFactory",
  "sourceName": "contracts/ReDAOIOUTokenFactory.sol",
  "abi": [
    {
      "inputs": [],
      "stateMutability": "nonpayable",
      "type": "constructor"
    },
    {
      "inputs": [
        {
          "internalType": "address",
          "name": "owner",
          "type": "address"
        }
      ],
      "name": "OwnableInvalidOwner",
      "type": "error"
    },
    {
      "inputs": [
        {
          "internalType": "address",
          "name": "account",
          "type": "address"
        }
      ],
      "name": "OwnableUnauthorizedAccount",
      "type": "error"
    },
    {
      "anonymous": false,
      "inputs": [
        {
          "indexed": true,
          "internalType": "address",
          "name": "previousOwner",
          "type": "address"
        },
        {
          "indexed": true,
          "internalType": "address",
          "name": "newOwner",
          "type": "address"
        }
      ],
      "name": "OwnershipTransferred",
      "type": "event"
    },
    {
      "anonymous": false,
      "inputs": [
        {
          "indexed": false,
          "internalType": "uint256",
          "name": "projectId",
          "type": "uint256"
        },
        {
          "indexed": true,
          "internalType": "address",
          "name": "tokenAddress",
          "type": "address"
        },
        {
          "indexed": false,
          "internalType": "string",
          "name": "name",
          "type": "string"
        },
        {
          "indexed": false,
          "internalType": "string",
          "name": "symbol",
          "type": "string"
        }
      ],
      "name": "TokenCreated",
      "type": "event"
    },
    {
      "inputs": [
        {
          "internalType": "uint256",
          "name": "projectId",
          "type": "uint256"
        },
        {
          "internalType": "string",
          "name": "name",
          "type": "string"
        },
        {
          "internalType": "string",
          "name": "symbol",
          "type": "string"
        }
      ],
      "name": "createReDAOIOUToken",
      "outputs": [
        {
          "internalType": "address",
          "name": "",
          "type": "address"
        }
      ],
      "stateMutability": "nonpayable",
      "type": "function"
    },
    {
      "inputs": [
        {
          "internalType": "uint256",
          "name": "projectId",
          "type": "uint256"
        }
      ],
      "name": "getIOUTokens",
      "outputs": [
        {
          "internalType": "address[]",
          "name": "",
          "type": "address[]"
        }
      ],
      "stateMutability": "view",
      "type": "function"
    },
    {
      "inputs": [],
      "name": "owner",
      "outputs": [
        {
          "internalType": "address",
          "name": "",
          "type": "address"
        }
      ],
      "stateMutability": "view",
      "type": "function"
    },
    {
      "inputs": [],
      "name": "renounceOwnership",
      "outputs": [],
      "stateMutability": "nonpayable",
      "type": "function"
    },
    {
      "inputs": [
        {
          "internalType": "address",
          "name": "newOwner",
          "type": "address"
        }
      ],
      "name": "transferOwnership",
      "outputs": [],
      "stateMutability": "nonpayable",
      "type": "function"
    }
  ],
  "bytecode": "0x608060405234801561001057600080fd5b50338061003757604051631e4fbdf760e01b81526000600482015260240160405180910390fd5b61004081610046565b50610096565b600080546001600160a01b038381166001600160a01b0319831681178455604051919092169283917f8be0079c531659141344cd1fd0a4f28419497f9722a3daafe3b4186f6b6457e09190a35050565b611a56806100a56000396000f3fe60806040523480156200001157600080fd5b50600436106200005e5760003560e01c8063715018a6146200006357806375833257146200006f5780637bdb939414620000a35780638da5cb5b14620000c9578063f2fde38b14620000db575b600080fd5b6200006d620000f2565b005b6200008662000080366004620003df565b6200010a565b6040516001600160a01b0390911681526020015b60405180910390f35b620000ba620000b436600462000453565b620001e4565b6040516200009a91906200046d565b6000546001600160a01b031662000086565b6200006d620000ec366004620004bc565b62000252565b620000fc6200029a565b620001086000620002c9565b565b6000620001166200029a565b6000838333604051620001299062000326565b620001379392919062000536565b604051809103906000f08015801562000154573d6000803e3d6000fd5b506000868152600160208181526040808420805493840181558452922001805473ffffffffffffffffffffffffffffffffffffffff19166001600160a01b0384169081179091559051919250907fcc6bab703d778894c5a2492ec687c950f3a2b101a32ca70efec1a6d547285c4990620001d49088908890889062000579565b60405180910390a2949350505050565b6000818152600160209081526040918290208054835181840281018401909452808452606093928301828280156200024657602002820191906000526020600020905b81546001600160a01b0316815260019091019060200180831162000227575b50505050509050919050565b6200025c6200029a565b6001600160a01b0381166200028c57604051631e4fbdf760e01b8152600060048201526024015b60405180910390fd5b6200029781620002c9565b50565b6000546001600160a01b03163314620001085760405163118cdaa760e01b815233600482015260240162000283565b600080546001600160a01b0383811673ffffffffffffffffffffffffffffffffffffffff19831681178455604051919092169283917f8be0079c531659141344cd1fd0a4f28419497f9722a3daafe3b4186f6b6457e09190a35050565b61146e80620005b383390190565b634e487b7160e01b600052604160045260246000fd5b600082601f8301126200035c57600080fd5b813567ffffffffffffffff808211156200037a576200037a62000334565b604051601f8301601f19908116603f01168101908282118183101715620003a557620003a562000334565b81604052838152866020858801011115620003bf57600080fd5b836020870160208301376000602085830101528094505050505092915050565b600080600060608486031215620003f557600080fd5b83359250602084013567ffffffffffffffff808211156200041557600080fd5b62000423878388016200034a565b935060408601359150808211156200043a57600080fd5b5062000449868287016200034a565b9150509250925092565b6000602082840312156200046657600080fd5b5035919050565b6020808252825182820181905260009190848201906040850190845b81811015620004b05783516001600160a01b03168352928401929184019160010162000489565b50909695505050505050565b600060208284031215620004cf57600080fd5b81356001600160a01b0381168114620004e757600080fd5b9392505050565b6000815180845260005b818110156200051657602081850181015186830182015201620004f8565b506000602082860101526020601f19601f83011685010191505092915050565b6060815260006200054b6060830186620004ee565b82810360208401526200055f8186620004ee565b9150506001600160a01b0383166040830152949350505050565b838152606060208201526000620005946060830185620004ee565b8281036040840152620005a88185620004ee565b969550505050505056fe60806040526005805460ff60a01b191690553480156200001e57600080fd5b506040516200146e3803806200146e8339810160408190526200004191620001f9565b808383600362000052838262000315565b50600462000061828262000315565b5050506001600160a01b0381166200009357604051631e4fbdf760e01b81526000600482015260240160405180910390fd5b6200009e81620000e2565b506001600160a01b031660009081526006602090815260408083208054600160ff199182168117909255600790935292208054909116909117905550620003e19050565b600580546001600160a01b038381166001600160a01b0319831681179093556040519116919082907f8be0079c531659141344cd1fd0a4f28419497f9722a3daafe3b4186f6b6457e090600090a35050565b634e487b7160e01b600052604160045260246000fd5b600082601f8301126200015c57600080fd5b81516001600160401b038082111562000179576200017962000134565b604051601f8301601f19908116603f01168101908282118183101715620001a457620001a462000134565b81604052838152602092508683858801011115620001c157600080fd5b600091505b83821015620001e55785820183015181830184015290820190620001c6565b600093810190920192909252949350505050565b6000806000606084860312156200020f57600080fd5b83516001600160401b03808211156200022757600080fd5b62000235878388016200014a565b945060208601519150808211156200024c57600080fd5b506200025b868287016200014a565b604086015190935090506001600160a01b03811681146200027b57600080fd5b809150509250925092565b600181811c908216806200029b57607f821691505b602082108103620002bc57634e487b7160e01b600052602260045260246000fd5b50919050565b601f8211156200031057600081815260208120601f850160051c81016020861015620002eb5750805b601f850160051c820191505b818110156200030c57828155600101620002f7565b5050505b505050565b81516001600160401b0381111562000331576200033162000134565b620003498162000342845462000286565b84620002c2565b602080601f831160018114620003815760008415620003685750858301515b600019600386901b1c1916600185901b1785556200030c565b600085815260208120601f198616915b82811015620003b25788860151825594840194600190910190840162000391565b5085821015620003d15787850151600019600388901b60f8161c191681555b5050505050600190811b01905550565b61107d80620003f16000396000f3fe608060405234801561001057600080fd5b50600436106101ae5760003560e01c8063715018a6116100ee5780639cd2370711610097578063c683630d11610071578063c683630d1461038f578063dd62ed3e146103bb578063e25fb7d5146103f4578063f2fde38b1461040757600080fd5b80639cd2370714610356578063a9059cbb14610369578063b4af2fa91461037c57600080fd5b806392ff0d31116100c857806392ff0d311461032757806394efcb3e1461033b57806395d89b411461034e57600080fd5b8063715018a6146102f15780637f287460146102f95780638da5cb5b1461030c57600080fd5b806340c10f191161015b57806353d6fd591161013557806353d6fd591461028f5780635484b2b9146102a257806359e24eaa146102b557806370a08231146102c857600080fd5b806340c10f19146102545780634b0bddd214610269578063530434901461027c57600080fd5b806323b872dd1161018c57806323b872dd1461020657806324d7806c14610219578063313ce5671461024557600080fd5b806306fdde03146101b3578063095ea7b3146101d157806318160ddd146101f4575b600080fd5b6101bb61041a565b6040516101c89190610ce2565b60405180910390f35b6101e46101df366004610d4c565b6104ac565b60405190151581526020016101c8565b6002545b6040519081526020016101c8565b6101e4610214366004610d76565b6104c6565b6101e4610227366004610db2565b6001600160a01b031660009081526007602052604090205460ff1690565b604051601281526020016101c8565b610267610262366004610d4c565b610554565b005b610267610277366004610ddd565b6105c1565b61026761028a366004610d76565b6105f4565b61026761029d366004610ddd565b6106b8565b6102676102b0366004610e10565b6106eb565b6101bb6102c3366004610db2565b610705565b6101f86102d6366004610db2565b6001600160a01b031660009081526020819052604090205490565b61026761079f565b6101bb610307366004610db2565b6107b3565b6005546040516001600160a01b0390911681526020016101c8565b6005546101e490600160a01b900460ff1681565b6101bb610349366004610db2565b6107cc565b6101bb6107e5565b610267610364366004610e82565b6107f4565b6101e4610377366004610d4c565b61081a565b61026761038a366004610e10565b610898565b6101e461039d366004610db2565b6001600160a01b031660009081526006602052604090205460ff1690565b6101f86103c9366004610e9d565b6001600160a01b03918216600090815260016020908152604080832093909416825291909152205490565b610267610402366004610e10565b6108b2565b610267610415366004610db2565b6108cc565b60606003805461042990610ec7565b80601f016020809104026020016040519081016040528092919081815260200182805461045590610ec7565b80156104a25780601f10610477576101008083540402835291602001916104a2565b820191906000526020600020905b81548152906001019060200180831161048557829003601f168201915b5050505050905090565b6000336104ba81858561090a565b60019150505b92915050565b600554600090600160a01b900460ff16806104f957506001600160a01b03841660009081526006602052604090205460ff165b6105415760405162461bcd60e51b81526020600482015260146024820152731d1c985b9cd9995c881b9bdd08185b1b1bddd95960621b60448201526064015b60405180910390fd5b61054c848484610917565b949350505050565b3360009081526007602052604090205460ff166105b35760405162461bcd60e51b815260206004820152601660248201527f63616c6c6572206973206e6f7420616e2061646d696e000000000000000000006044820152606401610538565b6105bd828261093b565b5050565b6105c9610971565b6001600160a01b03919091166000908152600760205260409020805460ff1916911515919091179055565b6105fc610971565b6001600160a01b0383166106525760405162461bcd60e51b815260206004820152601e60248201527f7472616e736665722066726f6d20746865207a65726f206164647265737300006044820152606401610538565b6001600160a01b0382166106a85760405162461bcd60e51b815260206004820152601c60248201527f7472616e7366657220746f20746865207a65726f2061646472657373000000006044820152606401610538565b6106b383838361099e565b505050565b6106c0610971565b6001600160a01b03919091166000908152600660205260409020805460ff1916911515919091179055565b3360009081526008602052604090206106b3828483610f65565b6009602052600090815260409020805461071e90610ec7565b80601f016020809104026020016040519081016040528092919081815260200182805461074a90610ec7565b80156107975780601f1061076c57610100808354040283529160200191610797565b820191906000526020600020905b81548152906001019060200180831161077a57829003601f168201915b505050505081565b6107a7610971565b6107b160006109fd565b565b6008602052600090815260409020805461071e90610ec7565b600a602052600090815260409020805461071e90610ec7565b60606004805461042990610ec7565b6107fc610971565b60058054911515600160a01b0260ff60a01b19909216919091179055565b600554600090600160a01b900460ff168061084457503360009081526006602052604090205460ff165b6108875760405162461bcd60e51b81526020600482015260146024820152731d1c985b9cd9995c881b9bdd08185b1b1bddd95960621b6044820152606401610538565b6108918383610a5c565b9392505050565b336000908152600a602052604090206106b3828483610f65565b3360009081526009602052604090206106b3828483610f65565b6108d4610971565b6001600160a01b0381166108fe57604051631e4fbdf760e01b815260006004820152602401610538565b610907816109fd565b50565b6106b38383836001610a6a565b600033610925858285610b40565b61093085858561099e565b506001949350505050565b6001600160a01b0382166109655760405163ec442f0560e01b815260006004820152602401610538565b6105bd60008383610bb8565b6005546001600160a01b031633146107b15760405163118cdaa760e01b8152336004820152602401610538565b6001600160a01b0383166109c857604051634b637e8f60e11b815260006004820152602401610538565b6001600160a01b0382166109f25760405163ec442f0560e01b815260006004820152602401610538565b6106b3838383610bb8565b600580546001600160a01b0383811673ffffffffffffffffffffffffffffffffffffffff19831681179093556040519116919082907f8be0079c531659141344cd1fd0a4f28419497f9722a3daafe3b4186f6b6457e090600090a35050565b6000336104ba81858561099e565b6001600160a01b038416610a945760405163e602df0560e01b815260006004820152602401610538565b6001600160a01b038316610abe57604051634a1406b160e11b815260006004820152602401610538565b6001600160a01b0380851660009081526001602090815260408083209387168352929052208290558015610b3a57826001600160a01b0316846001600160a01b03167f8c5be1e5ebec7d5bd14f71427d1e84f3dd0314c0f7b2291e5b200ac8c7c3b92584604051610b3191815260200190565b60405180910390a35b50505050565b6001600160a01b038381166000908152600160209081526040808320938616835292905220546000198114610b3a5781811015610ba957604051637dc7a0d960e11b81526001600160a01b03841660048201526024810182905260448101839052606401610538565b610b3a84848484036000610a6a565b6001600160a01b038316610be3578060026000828254610bd89190611026565b90915550610c559050565b6001600160a01b03831660009081526020819052604090205481811015610c365760405163391434e360e21b81526001600160a01b03851660048201526024810182905260448101839052606401610538565b6001600160a01b03841660009081526020819052604090209082900390555b6001600160a01b038216610c7157600280548290039055610c90565b6001600160a01b03821660009081526020819052604090208054820190555b816001600160a01b0316836001600160a01b03167fddf252ad1be2c89b69c2b068fc378daa952ba7f163c4a11628f55a4df523b3ef83604051610cd591815260200190565b60405180910390a3505050565b600060208083528351808285015260005b81811015610d0f57858101830151858201604001528201610cf3565b506000604082860101526040601f19601f8301168501019250505092915050565b80356001600160a01b0381168114610d4757600080fd5b919050565b60008060408385031215610d5f57600080fd5b610d6883610d30565b946020939093013593505050565b600080600060608486031215610d8b57600080fd5b610d9484610d30565b9250610da260208501610d30565b9150604084013590509250925092565b600060208284031215610dc457600080fd5b61089182610d30565b80358015158114610d4757600080fd5b60008060408385031215610df057600080fd5b610df983610d30565b9150610e0760208401610dcd565b90509250929050565b60008060208385031215610e2357600080fd5b823567ffffffffffffffff80821115610e3b57600080fd5b818501915085601f830112610e4f57600080fd5b813581811115610e5e57600080fd5b866020828501011115610e7057600080fd5b60209290920196919550909350505050565b600060208284031215610e9457600080fd5b61089182610dcd565b60008060408385031215610eb057600080fd5b610eb983610d30565b9150610e0760208401610d30565b600181811c90821680610edb57607f821691505b602082108103610efb57634e487b7160e01b600052602260045260246000fd5b50919050565b634e487b7160e01b600052604160045260246000fd5b601f8211156106b357600081815260208120601f850160051c81016020861015610f3e5750805b601f850160051c820191505b81811015610f5d57828155600101610f4a565b505050505050565b67ffffffffffffffff831115610f7d57610f7d610f01565b610f9183610f8b8354610ec7565b83610f17565b6000601f841160018114610fc55760008515610fad5750838201355b600019600387901b1c1916600186901b17835561101f565b600083815260209020601f19861690835b82811015610ff65786850135825560209485019460019092019101610fd6565b50868210156110135760001960f88860031b161c19848701351681555b505060018560011b0183555b5050505050565b808201808211156104c057634e487b7160e01b600052601160045260246000fdfea26469706673582212201c3bccafb59217fe26fd5edb349bae7f1597d74f37de7256bbfe33ec3170e7fa64736f6c63430008140033a2646970667358221220894aed68c5b9ff877cabe482ab59b1c58bfae7c90cd8b32885e264dec228cc4f64736f6c63430008140033",
  "linkReferences": {},
  "deployedLinkReferences": {}
}