{
  "_format": "hh-sol-artifact-1",
  "contractName": "ReDAOSeedStageFactory",
  "sourceName": "contracts/ReDAOSeedStageFactory.sol",
  "abi": [
    {
      "inputs": [],
      "stateMutability": "nonpayable",
      "type": "constructor"
    },
    {
      "inputs": [
        {
          "internalType": "address",
          "name": "owner",
          "type": "address"
        }
      ],
      "name": "OwnableInvalidOwner",
      "type": "error"
    },
    {
      "inputs": [
        {
          "internalType": "address",
          "name": "account",
          "type": "address"
        }
      ],
      "name": "OwnableUnauthorizedAccount",
      "type": "error"
    },
    {
      "anonymous": false,
      "inputs": [
        {
          "indexed": true,
          "internalType": "address",
          "name": "previousOwner",
          "type": "address"
        },
        {
          "indexed": true,
          "internalType": "address",
          "name": "newOwner",
          "type": "address"
        }
      ],
      "name": "OwnershipTransferred",
      "type": "event"
    },
    {
      "anonymous": false,
      "inputs": [
        {
          "indexed": false,
          "internalType": "string",
          "name": "projectName",
          "type": "string"
        },
        {
          "indexed": false,
          "internalType": "string",
          "name": "projectCode",
          "type": "string"
        },
        {
          "indexed": false,
          "internalType": "uint256",
          "name": "projectId",
          "type": "uint256"
        }
      ],
      "name": "ProjectCreated",
      "type": "event"
    },
    {
      "anonymous": false,
      "inputs": [
        {
          "indexed": false,
          "internalType": "uint256",
          "name": "projectId",
          "type": "uint256"
        },
        {
          "indexed": false,
          "internalType": "address",
          "name": "seedStageAddress",
          "type": "address"
        },
        {
          "indexed": false,
          "internalType": "address",
          "name": "multiSigAddress",
          "type": "address"
        },
        {
          "indexed": false,
          "internalType": "address",
          "name": "iouToken",
          "type": "address"
        },
        {
          "indexed": false,
          "internalType": "address",
          "name": "depositToken",
          "type": "address"
        }
      ],
      "name": "SeedStageCreated",
      "type": "event"
    },
    {
      "inputs": [
        {
          "internalType": "string",
          "name": "_projectName",
          "type": "string"
        },
        {
          "internalType": "string",
          "name": "_projectCode",
          "type": "string"
        }
      ],
      "name": "createProject",
      "outputs": [
        {
          "internalType": "address",
          "name": "",
          "type": "address"
        }
      ],
      "stateMutability": "nonpayable",
      "type": "function"
    },
    {
      "inputs": [
        {
          "internalType": "uint256",
          "name": "_projectId",
          "type": "uint256"
        },
        {
          "internalType": "address payable",
          "name": "multiSigAddress",
          "type": "address"
        },
        {
          "internalType": "address",
          "name": "_iouTokenAddress",
          "type": "address"
        },
        {
          "internalType": "address",
          "name": "_depositTokenAddress",
          "type": "address"
        }
      ],
      "name": "createReDAOSeedStage",
      "outputs": [
        {
          "internalType": "address",
          "name": "",
          "type": "address"
        }
      ],
      "stateMutability": "nonpayable",
      "type": "function"
    },
    {
      "inputs": [
        {
          "internalType": "uint256",
          "name": "projectId",
          "type": "uint256"
        }
      ],
      "name": "getSeedStages",
      "outputs": [
        {
          "internalType": "address[]",
          "name": "",
          "type": "address[]"
        }
      ],
      "stateMutability": "view",
      "type": "function"
    },
    {
      "inputs": [],
      "name": "owner",
      "outputs": [
        {
          "internalType": "address",
          "name": "",
          "type": "address"
        }
      ],
      "stateMutability": "view",
      "type": "function"
    },
    {
      "inputs": [],
      "name": "renounceOwnership",
      "outputs": [],
      "stateMutability": "nonpayable",
      "type": "function"
    },
    {
      "inputs": [
        {
          "internalType": "address",
          "name": "newOwner",
          "type": "address"
        }
      ],
      "name": "transferOwnership",
      "outputs": [],
      "stateMutability": "nonpayable",
      "type": "function"
    }
  ],
  "bytecode": "0x608060405234801561001057600080fd5b50338061003757604051631e4fbdf760e01b81526000600482015260240160405180910390fd5b61004081610046565b50610096565b600080546001600160a01b038381166001600160a01b0319831681178455604051919092169283917f8be0079c531659141344cd1fd0a4f28419497f9722a3daafe3b4186f6b6457e09190a35050565b612503806100a56000396000f3fe608060405234801561001057600080fd5b50600436106100725760003560e01c80638da5cb5b116100505780638da5cb5b146100d15780639324cc16146100e2578063f2fde38b146100f557600080fd5b80636bd0620414610077578063715018a6146100a75780638a1d7f83146100b1575b600080fd5b61008a610085366004610683565b610108565b6040516001600160a01b0390911681526020015b60405180910390f35b6100af6102c7565b005b6100c46100bf3660046106e7565b6102db565b60405161009e9190610700565b6000546001600160a01b031661008a565b61008a6100f0366004610762565b610347565b6100af6101033660046107b5565b61050a565b6000610112610548565b60018054906000610122836107d9565b909155505060015460009081526002602052604080822081516060810190925280548290829061015190610800565b80601f016020809104026020016040519081016040528092919081815260200182805461017d90610800565b80156101ca5780601f1061019f576101008083540402835291602001916101ca565b820191906000526020600020905b8154815290600101906020018083116101ad57829003601f168201915b505050505081526020016001820180546101e390610800565b80601f016020809104026020016040519081016040528092919081815260200182805461020f90610800565b801561025c5780601f106102315761010080835404028352916020019161025c565b820191906000526020600020905b81548152906001019060200180831161023f57829003601f168201915b50505091835250506002919091015460209182015285825281018490526001546040808301829052519192507fd739efca570c496acabced1a81089a2530ff692329ab57b3b05ffd5759fb6f15916102b8918791879190610880565b60405180910390a15092915050565b6102cf610548565b6102d96000610575565b565b60008181526003602090815260409182902080548351818402810184019094528084526060939283018282801561033b57602002820191906000526020600020905b81546001600160a01b0316815260019091019060200180831161031d575b50505050509050919050565b6000610351610548565b6000858152600260208190526040909120015485146103b75760405162461bcd60e51b815260206004820152601160248201527f496e76616c69642070726f6a656374496400000000000000000000000000000060448201526064015b60405180910390fd5b6001600160a01b03841661040d5760405162461bcd60e51b815260206004820152601860248201527f496e76616c6964206d756c74697369672061646472657373000000000000000060448201526064016103ae565b60003385858560405161041f906105d2565b6001600160a01b039485168152928416602084015290831660408301529091166060820152608001604051809103906000f080158015610463573d6000803e3d6000fd5b50600087815260036020908152604080832080546001810182559084529282902090920180546001600160a01b0385811673ffffffffffffffffffffffffffffffffffffffff19909216821790925583518b8152928301528881168284015287811660608301528616608082015290519192507f0ed8d408ca03d334fc72ce130e62cba1ba65002091612c09881289d5fbafc6cb919081900360a00190a195945050505050565b610512610548565b6001600160a01b03811661053c57604051631e4fbdf760e01b8152600060048201526024016103ae565b61054581610575565b50565b6000546001600160a01b031633146102d95760405163118cdaa760e01b81523360048201526024016103ae565b600080546001600160a01b0383811673ffffffffffffffffffffffffffffffffffffffff19831681178455604051919092169283917f8be0079c531659141344cd1fd0a4f28419497f9722a3daafe3b4186f6b6457e09190a35050565b611c1780620008b783390190565b634e487b7160e01b600052604160045260246000fd5b600082601f83011261060757600080fd5b813567ffffffffffffffff80821115610622576106226105e0565b604051601f8301601f19908116603f0116810190828211818310171561064a5761064a6105e0565b8160405283815286602085880101111561066357600080fd5b836020870160208301376000602085830101528094505050505092915050565b6000806040838503121561069657600080fd5b823567ffffffffffffffff808211156106ae57600080fd5b6106ba868387016105f6565b935060208501359150808211156106d057600080fd5b506106dd858286016105f6565b9150509250929050565b6000602082840312156106f957600080fd5b5035919050565b6020808252825182820181905260009190848201906040850190845b818110156107415783516001600160a01b03168352928401929184019160010161071c565b50909695505050505050565b6001600160a01b038116811461054557600080fd5b6000806000806080858703121561077857600080fd5b84359350602085013561078a8161074d565b9250604085013561079a8161074d565b915060608501356107aa8161074d565b939692955090935050565b6000602082840312156107c757600080fd5b81356107d28161074d565b9392505050565b6000600182016107f957634e487b7160e01b600052601160045260246000fd5b5060010190565b600181811c9082168061081457607f821691505b60208210810361083457634e487b7160e01b600052602260045260246000fd5b50919050565b6000815180845260005b8181101561086057602081850181015186830182015201610844565b506000602082860101526020601f19601f83011685010191505092915050565b606081526000610893606083018661083a565b82810360208401526108a5818661083a565b91505082604083015294935050505056fe60806040526002805461ff00191690553480156200001c57600080fd5b5060405162001c1738038062001c178339810160408190526200003f91620001ae565b836001600160a01b0381166200007057604051631e4fbdf760e01b8152600060048201526024015b60405180910390fd5b6200007b8162000145565b50600180556002805460ff191690556001600160a01b038316620000e25760405162461bcd60e51b815260206004820152601860248201527f4d756c74695369672061646472657373206e6f74207365740000000000000000604482015260640162000067565b600480546001600160a01b03199081166001600160a01b0395861617909155600380549091169284169290921790915560028054610100610100600160b01b031990911662010000939094169290920261ff001916929092171790555062000216565b600080546001600160a01b038381166001600160a01b0319831681178455604051919092169283917f8be0079c531659141344cd1fd0a4f28419497f9722a3daafe3b4186f6b6457e09190a35050565b6001600160a01b0381168114620001ab57600080fd5b50565b60008060008060808587031215620001c557600080fd5b8451620001d28162000195565b6020860151909450620001e58162000195565b6040860151909350620001f88162000195565b60608601519092506200020b8162000195565b939692955090935050565b6119f180620002266000396000f3fe60806040526004361061013a5760003560e01c80638c65c81f116100bb57806399cf62cc1161007f578063c9949b7011610059578063c9949b701461047d578063f2fde38b1461049d578063f9c516ea146104bd57600080fd5b806399cf62cc146103ae5780639e281a98146103ce578063b6b12e61146103ee57600080fd5b80638c65c81f146102815780638da5cb5b146103305780638dcf91361461034e57806396021a0f1461036e57806397ac4a251461038e57600080fd5b806347c5a9b21161010257806347c5a9b21461020c5780635c975abb1461022c578063715018a6146102445780638456cb591461025957806384eb77311461026e57600080fd5b8063127f0b3f1461013f5780631516def71461016857806323dc9e37146101a0578063392e53cd146101c65780633f4ba83a146101f5575b600080fd5b34801561014b57600080fd5b5061015560065481565b6040519081526020015b60405180910390f35b34801561017457600080fd5b50600454610188906001600160a01b031681565b6040516001600160a01b03909116815260200161015f565b3480156101ac57600080fd5b50600254610188906201000090046001600160a01b031681565b3480156101d257600080fd5b506002546101e590610100900460ff1681565b604051901515815260200161015f565b34801561020157600080fd5b5061020a6104f5565b005b34801561021857600080fd5b5061020a6102273660046115cb565b610507565b34801561023857600080fd5b5060025460ff166101e5565b34801561025057600080fd5b5061020a6105ed565b34801561026557600080fd5b5061020a6105ff565b61020a61027c36600461166c565b61060f565b34801561028d57600080fd5b506102ec61029c3660046116bf565b6005602081905260009182526040909120805460018201546002830154600384015460048501549585015460068601546007870154600890970154959760ff909516969395929493919290919089565b60408051998a5297151560208a0152968801959095526060870193909352608086019190915260a085015260c084015260e08301526101008201526101200161015f565b34801561033c57600080fd5b506000546001600160a01b0316610188565b34801561035a57600080fd5b506101e56103693660046116ed565b610a63565b34801561037a57600080fd5b5061020a610389366004611749565b610ae9565b34801561039a57600080fd5b506101e56103a93660046116bf565b610b76565b3480156103ba57600080fd5b5061020a6103c9366004611749565b610c5f565b3480156103da57600080fd5b5061020a6103e9366004611766565b610cf4565b3480156103fa57600080fd5b5061040e6104093660046116bf565b610d70565b60405161015f91906000610120820190508251825260208301511515602083015260408301516040830152606083015160608301526080830151608083015260a083015160a083015260c083015160c083015260e083015160e083015261010080840151818401525092915050565b34801561048957600080fd5b50600354610188906001600160a01b031681565b3480156104a957600080fd5b5061020a6104b8366004611749565b610e49565b3480156104c957600080fd5b506101556104d8366004611792565b600760209081526000928352604080842090915290825290205481565b6104fd610e87565b610505610eb4565b565b61050f610e87565b6006805490600061051f836117d8565b909155505060068054600081815260056020818152604080842094855560018501805460ff19168e1515908117909155600286018d9055600386018c9055600486018b9055928501899055848601889055600885018790559454855190815290810191909152928301899052606083018890526080830187905260a0830186905260c0830185905260e08301526101008201839052907f742a6de8557256bd59fe4a22d3cc4cefefe3eb0a94494d9eed196e0ab496f51e906101200160405180910390a15050505050505050565b6105f5610e87565b6105056000610f06565b610607610e87565b610505610f63565b610617610fa0565b61061f610fca565b600254610100900460ff1661067b5760405162461bcd60e51b815260206004820152600f60248201527f6e6f7420696e697469616c697a6564000000000000000000000000000000000060448201526064015b60405180910390fd5b61068484610b76565b6106d05760405162461bcd60e51b815260206004820152601060248201527f726f756e64206e6f7420616374697665000000000000000000000000000000006044820152606401610672565b6000848152600760209081526040808320338452909152902054156107375760405162461bcd60e51b815260206004820152601160248201527f616c7265616479206465706f73697465640000000000000000000000000000006044820152606401610672565b60008481526005602052604090206003810154841080159061075d575080600401548411155b6107a95760405162461bcd60e51b815260206004820152601460248201527f616d6f756e74206f7574206f6620626f756e64730000000000000000000000006044820152606401610672565b80600201548482600701546107be91906117f1565b111561080c5760405162461bcd60e51b815260206004820152601960248201527f726f756e6420616c6c6f636174696f6e206578636565646564000000000000006044820152606401610672565b600181015460ff1615610875576108293384848460080154610a63565b6108755760405162461bcd60e51b815260206004820152600f60248201527f6e6f742077686974656c697374656400000000000000000000000000000000006044820152606401610672565b6002546201000090046001600160a01b031661089081610fee565b156108e9578434146108e45760405162461bcd60e51b815260206004820152601f60248201527f616d6f756e74206d69736d6174636820776974682076616c75652073656e74006044820152606401610672565b610955565b34156109425760405162461bcd60e51b815260206004820152602260248201527f646f206e6f742073656e6420455448207769746820746f6b656e206465706f736044820152611a5d60f21b6064820152608401610672565b6109556001600160a01b03821686611028565b60008681526007602090815260408083203384529091528120805487929061097e9084906117f1565b925050819055508482600701600082825461099991906117f1565b90915550600090506109ab8287611095565b6003546040516340c10f1960e01b8152336004820152602481018390529192506001600160a01b0316906340c10f1990604401600060405180830381600087803b1580156109f857600080fd5b505af1158015610a0c573d6000803e3d6000fd5b5050604080518a81523360208201529081018990527f1bfe99ad5ce4d1ae13655007c460a9d89b737f15b2ec86c60b1e531b76db69c59250606001905060405180910390a1505050610a5d60018055565b50505050565b6040516bffffffffffffffffffffffff19606086901b1660208201526000908190603401604051602081830303815290604052805190602001209050610adf8585808060200260200160405190810160405280939291908181526020018383602002808284376000920191909152508792508591506111279050565b9695505050505050565b610af1610e87565b6001600160a01b038116610b475760405162461bcd60e51b815260206004820152601b60248201527f6164647265737320697320746865207a65726f206164647265737300000000006044820152606401610672565b6003805473ffffffffffffffffffffffffffffffffffffffff19166001600160a01b0392909216919091179055565b60006006548210610bc95760405162461bcd60e51b815260206004820152601960248201527f726f756e6420696e646578206f7574206f6620626f756e6473000000000000006044820152606401610672565b60008281526005602081815260409283902083516101208101855281548152600182015460ff1615159281019290925260028101549382019390935260038301546060820152600483015460808201529082015460a08201819052600683015460c0830152600783015460e0830152600890920154610100820152904210801590610c5857508060c001514211155b9392505050565b610c67610e87565b6001600160a01b038116610cbd5760405162461bcd60e51b815260206004820152601b60248201527f6164647265737320697320746865207a65726f206164647265737300000000006044820152606401610672565b600280546001600160a01b03909216620100000275ffffffffffffffffffffffffffffffffffffffff000019909216919091179055565b610cfc610e87565b610d0e826001600160a01b0316610fee565b15610d52576004546040516001600160a01b039091169082156108fc029083906000818181858888f19350505050158015610d4d573d6000803e3d6000fd5b505050565b600454610d4d906001600160a01b0384811691168361113d565b5050565b610dc460405180610120016040528060008152602001600015158152602001600081526020016000815260200160008152602001600081526020016000815260200160008152602001600080191681525090565b610dcc610e87565b5060009081526005602081815260409283902083516101208101855281548152600182015460ff1615159281019290925260028101549382019390935260038301546060820152600483015460808201529082015460a0820152600682015460c0820152600782015460e082015260089091015461010082015290565b610e51610e87565b6001600160a01b038116610e7b57604051631e4fbdf760e01b815260006004820152602401610672565b610e8481610f06565b50565b6000546001600160a01b031633146105055760405163118cdaa760e01b8152336004820152602401610672565b610ebc6111b7565b6002805460ff191690557f5db9ee0a495bf2e6ff9c91a7834c1ba4fdd244a5e8aa4e537bd38aeae4b073aa335b6040516001600160a01b03909116815260200160405180910390a1565b600080546001600160a01b0383811673ffffffffffffffffffffffffffffffffffffffff19831681178455604051919092169283917f8be0079c531659141344cd1fd0a4f28419497f9722a3daafe3b4186f6b6457e09190a35050565b610f6b610fca565b6002805460ff191660011790557f62e78cea01bee320cd4e420270b5ea74000d11b0c9f74754ebdbfc544b05a258610ee93390565b600260015403610fc357604051633ee5aeb560e01b815260040160405180910390fd5b6002600155565b60025460ff16156105055760405163d93c066560e01b815260040160405180910390fd5b60006001600160a01b038216158061102257506001600160a01b03821673eeeeeeeeeeeeeeeeeeeeeeeeeeeeeeeeeeeeeeee145b92915050565b80600003611034575050565b61103d82610fee565b156110805780341115610d6c57336108fc6110588334611804565b6040518115909202916000818181858888f19350505050158015610d4d573d6000803e3d6000fd5b610d6c6001600160a01b0383163330846111da565b6000806110aa846001600160a01b0316611241565b6003549091506000906110c5906001600160a01b0316611241565b9050808211156110f7576110d98183611804565b6110e490600a6118fb565b6110ee9085611907565b92505050611022565b8082101561111e576111098282611804565b61111490600a6118fb565b6110ee9085611929565b50919392505050565b60008261113485846113b8565b14949350505050565b60008160000361114f57506001610c58565b61115884610fee565b15611199576040516001600160a01b0384169083156108fc029084906000818181858888f19350505050158015611193573d6000803e3d6000fd5b506111ad565b6111ad6001600160a01b0385168484611405565b5060019392505050565b60025460ff1661050557604051638dfc202b60e01b815260040160405180910390fd5b6040516001600160a01b038481166024830152838116604483015260648201839052610a5d9186918216906323b872dd906084015b604051602081830303815290604052915060e01b6020820180516001600160e01b038381831617835250505050611436565b600061124c82610fee565b1561125957506012919050565b60408051600481526024810182526020810180516001600160e01b031663313ce56760e01b179052905160009182916001600160a01b03861691612710916112a19190611940565b6000604051808303818686fa925050503d80600081146112dd576040519150601f19603f3d011682016040523d82523d6000602084013e6112e2565b606091505b50915091508115806112f357508051155b156113835760408051600481526024810182526020810180516001600160e01b0316632e0f262560e01b17905290516001600160a01b038616916127109161133b9190611940565b6000604051808303818686fa925050503d8060008114611377576040519150601f19603f3d011682016040523d82523d6000602084013e61137c565b606091505b5090925090505b818015611391575060008151115b61139c5760126113b0565b808060200190518101906113b0919061196f565b949350505050565b600081815b84518110156113fd576113e9828683815181106113dc576113dc611988565b6020026020010151611499565b9150806113f5816117d8565b9150506113bd565b509392505050565b6040516001600160a01b03838116602483015260448201839052610d4d91859182169063a9059cbb9060640161120f565b600061144b6001600160a01b038416836114c5565b9050805160001415801561147057508080602001905181019061146e919061199e565b155b15610d4d57604051635274afe760e01b81526001600160a01b0384166004820152602401610672565b60008183106114b5576000828152602084905260409020610c58565b5060009182526020526040902090565b6060610c588383600084600080856001600160a01b031684866040516114eb9190611940565b60006040518083038185875af1925050503d8060008114611528576040519150601f19603f3d011682016040523d82523d6000602084013e61152d565b606091505b5091509150610adf86838360608261154d5761154882611594565b610c58565b815115801561156457506001600160a01b0384163b155b1561158d57604051639996b31560e01b81526001600160a01b0385166004820152602401610672565b5080610c58565b8051156115a45780518082602001fd5b604051630a12f52160e11b815260040160405180910390fd5b8015158114610e8457600080fd5b600080600080600080600060e0888a0312156115e657600080fd5b87356115f1816115bd565b9960208901359950604089013598606081013598506080810135975060a0810135965060c00135945092505050565b60008083601f84011261163257600080fd5b50813567ffffffffffffffff81111561164a57600080fd5b6020830191508360208260051b850101111561166557600080fd5b9250929050565b6000806000806060858703121561168257600080fd5b8435935060208501359250604085013567ffffffffffffffff8111156116a757600080fd5b6116b387828801611620565b95989497509550505050565b6000602082840312156116d157600080fd5b5035919050565b6001600160a01b0381168114610e8457600080fd5b6000806000806060858703121561170357600080fd5b843561170e816116d8565b9350602085013567ffffffffffffffff81111561172a57600080fd5b61173687828801611620565b9598909750949560400135949350505050565b60006020828403121561175b57600080fd5b8135610c58816116d8565b6000806040838503121561177957600080fd5b8235611784816116d8565b946020939093013593505050565b600080604083850312156117a557600080fd5b8235915060208301356117b7816116d8565b809150509250929050565b634e487b7160e01b600052601160045260246000fd5b6000600182016117ea576117ea6117c2565b5060010190565b80820180821115611022576110226117c2565b81810381811115611022576110226117c2565b600181815b80851115611852578160001904821115611838576118386117c2565b8085161561184557918102915b93841c939080029061181c565b509250929050565b60008261186957506001611022565b8161187657506000611022565b816001811461188c5760028114611896576118b2565b6001915050611022565b60ff8411156118a7576118a76117c2565b50506001821b611022565b5060208310610133831016604e8410600b84101617156118d5575081810a611022565b6118df8383611817565b80600019048211156118f3576118f36117c2565b029392505050565b6000610c58838361185a565b60008261192457634e487b7160e01b600052601260045260246000fd5b500490565b8082028115828204841417611022576110226117c2565b6000825160005b818110156119615760208186018101518583015201611947565b506000920191825250919050565b60006020828403121561198157600080fd5b5051919050565b634e487b7160e01b600052603260045260246000fd5b6000602082840312156119b057600080fd5b8151610c58816115bd56fea26469706673582212200ceebdd79d4ccc0776adcac7733dcb98735ff9be1e4d0a911cff8200a7822bac64736f6c63430008140033a2646970667358221220c45752cb48e251150285a7230d4536be752649a02320d748caa977c3e8f1f15b64736f6c63430008140033",
  "linkReferences": {},
  "deployedLinkReferences": {}
}