{
  "_format": "hh-sol-artifact-1",
  "contractName": "ReDAOSeedStage",
  "sourceName": "contracts/ReDAOSeedStage.sol",
  "abi": [
    {
      "inputs": [
        {
          "internalType": "address",
          "name": "initialOwner",
          "type": "address"
        },
        {
          "internalType": "address payable",
          "name": "_multiSigAddress",
          "type": "address"
        },
        {
          "internalType": "address",
          "name": "_iouTokenAddress",
          "type": "address"
        },
        {
          "internalType": "address",
          "name": "_depositTokenAddress",
          "type": "address"
        }
      ],
      "stateMutability": "nonpayable",
      "type": "constructor"
    },
    {
      "inputs": [
        {
          "internalType": "address",
          "name": "target",
          "type": "address"
        }
      ],
      "name": "AddressEmptyCode",
      "type": "error"
    },
    {
      "inputs": [
        {
          "internalType": "address",
          "name": "account",
          "type": "address"
        }
      ],
      "name": "AddressInsufficientBalance",
      "type": "error"
    },
    {
      "inputs": [],
      "name": "EnforcedPause",
      "type": "error"
    },
    {
      "inputs": [],
      "name": "ExpectedPause",
      "type": "error"
    },
    {
      "inputs": [],
      "name": "FailedInnerCall",
      "type": "error"
    },
    {
      "inputs": [
        {
          "internalType": "address",
          "name": "owner",
          "type": "address"
        }
      ],
      "name": "OwnableInvalidOwner",
      "type": "error"
    },
    {
      "inputs": [
        {
          "internalType": "address",
          "name": "account",
          "type": "address"
        }
      ],
      "name": "OwnableUnauthorizedAccount",
      "type": "error"
    },
    {
      "inputs": [],
      "name": "ReentrancyGuardReentrantCall",
      "type": "error"
    },
    {
      "inputs": [
        {
          "internalType": "address",
          "name": "token",
          "type": "address"
        }
      ],
      "name": "SafeERC20FailedOperation",
      "type": "error"
    },
    {
      "anonymous": false,
      "inputs": [
        {
          "indexed": true,
          "internalType": "address",
          "name": "previousOwner",
          "type": "address"
        },
        {
          "indexed": true,
          "internalType": "address",
          "name": "newOwner",
          "type": "address"
        }
      ],
      "name": "OwnershipTransferred",
      "type": "event"
    },
    {
      "anonymous": false,
      "inputs": [
        {
          "indexed": false,
          "internalType": "address",
          "name": "account",
          "type": "address"
        }
      ],
      "name": "Paused",
      "type": "event"
    },
    {
      "anonymous": false,
      "inputs": [
        {
          "indexed": false,
          "internalType": "uint256",
          "name": "roundId",
          "type": "uint256"
        },
        {
          "indexed": false,
          "internalType": "bool",
          "name": "isWhitelistRound",
          "type": "bool"
        },
        {
          "indexed": false,
          "internalType": "uint256",
          "name": "allocation",
          "type": "uint256"
        },
        {
          "indexed": false,
          "internalType": "uint256",
          "name": "minAllocationPerAddress",
          "type": "uint256"
        },
        {
          "indexed": false,
          "internalType": "uint256",
          "name": "maxAllocationPerAddress",
          "type": "uint256"
        },
        {
          "indexed": false,
          "internalType": "uint256",
          "name": "startTime",
          "type": "uint256"
        },
        {
          "indexed": false,
          "internalType": "uint256",
          "name": "endTime",
          "type": "uint256"
        },
        {
          "indexed": false,
          "internalType": "uint256",
          "name": "raisedAmount",
          "type": "uint256"
        },
        {
          "indexed": false,
          "internalType": "bytes32",
          "name": "merkleRoot",
          "type": "bytes32"
        }
      ],
      "name": "RoundCreated",
      "type": "event"
    },
    {
      "anonymous": false,
      "inputs": [
        {
          "indexed": false,
          "internalType": "address",
          "name": "account",
          "type": "address"
        }
      ],
      "name": "Unpaused",
      "type": "event"
    },
    {
      "anonymous": false,
      "inputs": [
        {
          "indexed": false,
          "internalType": "address",
          "name": "depositToken",
          "type": "address"
        }
      ],
      "name": "UpdateDepositToken",
      "type": "event"
    },
    {
      "anonymous": false,
      "inputs": [
        {
          "indexed": false,
          "internalType": "address",
          "name": "iouToken",
          "type": "address"
        }
      ],
      "name": "UpdateIouToken",
      "type": "event"
    },
    {
      "anonymous": false,
      "inputs": [
        {
          "indexed": false,
          "internalType": "uint256",
          "name": "roundId",
          "type": "uint256"
        },
        {
          "indexed": false,
          "internalType": "address",
          "name": "user",
          "type": "address"
        },
        {
          "indexed": false,
          "internalType": "uint256",
          "name": "amount",
          "type": "uint256"
        }
      ],
      "name": "UserDeposited",
      "type": "event"
    },
    {
      "inputs": [
        {
          "internalType": "uint256",
          "name": "roundId",
          "type": "uint256"
        },
        {
          "internalType": "uint256",
          "name": "amount",
          "type": "uint256"
        },
        {
          "internalType": "bytes32[]",
          "name": "merkleProof",
          "type": "bytes32[]"
        }
      ],
      "name": "deposit",
      "outputs": [],
      "stateMutability": "payable",
      "type": "function"
    },
    {
      "inputs": [],
      "name": "depositTokenAddress",
      "outputs": [
        {
          "internalType": "address",
          "name": "",
          "type": "address"
        }
      ],
      "stateMutability": "view",
      "type": "function"
    },
    {
      "inputs": [
        {
          "internalType": "uint256",
          "name": "_roundId",
          "type": "uint256"
        }
      ],
      "name": "getRoundDetails",
      "outputs": [
        {
          "components": [
            {
              "internalType": "uint256",
              "name": "roundId",
              "type": "uint256"
            },
            {
              "internalType": "bool",
              "name": "isWhitelistRound",
              "type": "bool"
            },
            {
              "internalType": "uint256",
              "name": "allocation",
              "type": "uint256"
            },
            {
              "internalType": "uint256",
              "name": "minAllocationPerAddress",
              "type": "uint256"
            },
            {
              "internalType": "uint256",
              "name": "maxAllocationPerAddress",
              "type": "uint256"
            },
            {
              "internalType": "uint256",
              "name": "startTime",
              "type": "uint256"
            },
            {
              "internalType": "uint256",
              "name": "endTime",
              "type": "uint256"
            },
            {
              "internalType": "uint256",
              "name": "raisedAmount",
              "type": "uint256"
            },
            {
              "internalType": "bytes32",
              "name": "merkleRoot",
              "type": "bytes32"
            }
          ],
          "internalType": "struct ReDAOSeedStage.Round",
          "name": "round",
          "type": "tuple"
        }
      ],
      "stateMutability": "view",
      "type": "function"
    },
    {
      "inputs": [],
      "name": "iouTokenAddress",
      "outputs": [
        {
          "internalType": "address",
          "name": "",
          "type": "address"
        }
      ],
      "stateMutability": "view",
      "type": "function"
    },
    {
      "inputs": [],
      "name": "isInitialized",
      "outputs": [
        {
          "internalType": "bool",
          "name": "",
          "type": "bool"
        }
      ],
      "stateMutability": "view",
      "type": "function"
    },
    {
      "inputs": [
        {
          "internalType": "uint256",
          "name": "roundIndex",
          "type": "uint256"
        }
      ],
      "name": "isRoundActive",
      "outputs": [
        {
          "internalType": "bool",
          "name": "",
          "type": "bool"
        }
      ],
      "stateMutability": "view",
      "type": "function"
    },
    {
      "inputs": [],
      "name": "multiSigAddress",
      "outputs": [
        {
          "internalType": "address payable",
          "name": "",
          "type": "address"
        }
      ],
      "stateMutability": "view",
      "type": "function"
    },
    {
      "inputs": [],
      "name": "owner",
      "outputs": [
        {
          "internalType": "address",
          "name": "",
          "type": "address"
        }
      ],
      "stateMutability": "view",
      "type": "function"
    },
    {
      "inputs": [],
      "name": "pause",
      "outputs": [],
      "stateMutability": "nonpayable",
      "type": "function"
    },
    {
      "inputs": [],
      "name": "paused",
      "outputs": [
        {
          "internalType": "bool",
          "name": "",
          "type": "bool"
        }
      ],
      "stateMutability": "view",
      "type": "function"
    },
    {
      "inputs": [],
      "name": "renounceOwnership",
      "outputs": [],
      "stateMutability": "nonpayable",
      "type": "function"
    },
    {
      "inputs": [],
      "name": "roundCount",
      "outputs": [
        {
          "internalType": "uint256",
          "name": "",
          "type": "uint256"
        }
      ],
      "stateMutability": "view",
      "type": "function"
    },
    {
      "inputs": [
        {
          "internalType": "uint256",
          "name": "",
          "type": "uint256"
        }
      ],
      "name": "rounds",
      "outputs": [
        {
          "internalType": "uint256",
          "name": "roundId",
          "type": "uint256"
        },
        {
          "internalType": "bool",
          "name": "isWhitelistRound",
          "type": "bool"
        },
        {
          "internalType": "uint256",
          "name": "allocation",
          "type": "uint256"
        },
        {
          "internalType": "uint256",
          "name": "minAllocationPerAddress",
          "type": "uint256"
        },
        {
          "internalType": "uint256",
          "name": "maxAllocationPerAddress",
          "type": "uint256"
        },
        {
          "internalType": "uint256",
          "name": "startTime",
          "type": "uint256"
        },
        {
          "internalType": "uint256",
          "name": "endTime",
          "type": "uint256"
        },
        {
          "internalType": "uint256",
          "name": "raisedAmount",
          "type": "uint256"
        },
        {
          "internalType": "bytes32",
          "name": "merkleRoot",
          "type": "bytes32"
        }
      ],
      "stateMutability": "view",
      "type": "function"
    },
    {
      "inputs": [
        {
          "internalType": "address",
          "name": "newDepositTokenAddress",
          "type": "address"
        }
      ],
      "name": "setDepositTokenAddress",
      "outputs": [],
      "stateMutability": "nonpayable",
      "type": "function"
    },
    {
      "inputs": [
        {
          "internalType": "address",
          "name": "newIouTokenAddress",
          "type": "address"
        }
      ],
      "name": "setIouTokenAddress",
      "outputs": [],
      "stateMutability": "nonpayable",
      "type": "function"
    },
    {
      "inputs": [
        {
          "internalType": "bool",
          "name": "_isWhitelistRound",
          "type": "bool"
        },
        {
          "internalType": "uint256",
          "name": "_allocation",
          "type": "uint256"
        },
        {
          "internalType": "uint256",
          "name": "_minAllocationPerAddress",
          "type": "uint256"
        },
        {
          "internalType": "uint256",
          "name": "_maxAllocationPerAddress",
          "type": "uint256"
        },
        {
          "internalType": "uint256",
          "name": "_startTime",
          "type": "uint256"
        },
        {
          "internalType": "uint256",
          "name": "_endTime",
          "type": "uint256"
        },
        {
          "internalType": "bytes32",
          "name": "_merkleRoot",
          "type": "bytes32"
        }
      ],
      "name": "setRoundDetails",
      "outputs": [],
      "stateMutability": "nonpayable",
      "type": "function"
    },
    {
      "inputs": [
        {
          "internalType": "address",
          "name": "newOwner",
          "type": "address"
        }
      ],
      "name": "transferOwnership",
      "outputs": [],
      "stateMutability": "nonpayable",
      "type": "function"
    },
    {
      "inputs": [],
      "name": "unpause",
      "outputs": [],
      "stateMutability": "nonpayable",
      "type": "function"
    },
    {
      "inputs": [
        {
          "internalType": "uint256",
          "name": "",
          "type": "uint256"
        },
        {
          "internalType": "address",
          "name": "",
          "type": "address"
        }
      ],
      "name": "userDeposits",
      "outputs": [
        {
          "internalType": "uint256",
          "name": "",
          "type": "uint256"
        }
      ],
      "stateMutability": "view",
      "type": "function"
    },
    {
      "inputs": [
        {
          "internalType": "address",
          "name": "user",
          "type": "address"
        },
        {
          "internalType": "bytes32[]",
          "name": "merkleProof",
          "type": "bytes32[]"
        },
        {
          "internalType": "bytes32",
          "name": "merkleRoot",
          "type": "bytes32"
        }
      ],
      "name": "verifyDeposit",
      "outputs": [
        {
          "internalType": "bool",
          "name": "",
          "type": "bool"
        }
      ],
      "stateMutability": "pure",
      "type": "function"
    },
    {
      "inputs": [
        {
          "internalType": "contract IERC20",
          "name": "token",
          "type": "address"
        },
        {
          "internalType": "uint256",
          "name": "amount",
          "type": "uint256"
        }
      ],
      "name": "withdrawToken",
      "outputs": [],
      "stateMutability": "nonpayable",
      "type": "function"
    }
  ],
  "bytecode": "0x60806040526002805461ff00191690553480156200001c57600080fd5b5060405162001c7b38038062001c7b8339810160408190526200003f91620001ae565b836001600160a01b0381166200007057604051631e4fbdf760e01b8152600060048201526024015b60405180910390fd5b6200007b8162000145565b50600180556002805460ff191690556001600160a01b038316620000e25760405162461bcd60e51b815260206004820152601860248201527f4d756c74695369672061646472657373206e6f74207365740000000000000000604482015260640162000067565b600480546001600160a01b03199081166001600160a01b0395861617909155600380549091169284169290921790915560028054610100610100600160b01b031990911662010000939094169290920261ff001916929092171790555062000216565b600080546001600160a01b038381166001600160a01b0319831681178455604051919092169283917f8be0079c531659141344cd1fd0a4f28419497f9722a3daafe3b4186f6b6457e09190a35050565b6001600160a01b0381168114620001ab57600080fd5b50565b60008060008060808587031215620001c557600080fd5b8451620001d28162000195565b6020860151909450620001e58162000195565b6040860151909350620001f88162000195565b60608601519092506200020b8162000195565b939692955090935050565b611a5580620002266000396000f3fe60806040526004361061013a5760003560e01c80638c65c81f116100bb57806399cf62cc1161007f578063c9949b7011610059578063c9949b701461047d578063f2fde38b1461049d578063f9c516ea146104bd57600080fd5b806399cf62cc146103ae5780639e281a98146103ce578063b6b12e61146103ee57600080fd5b80638c65c81f146102815780638da5cb5b146103305780638dcf91361461034e57806396021a0f1461036e57806397ac4a251461038e57600080fd5b806347c5a9b21161010257806347c5a9b21461020c5780635c975abb1461022c578063715018a6146102445780638456cb591461025957806384eb77311461026e57600080fd5b8063127f0b3f1461013f5780631516def71461016857806323dc9e37146101a0578063392e53cd146101c65780633f4ba83a146101f5575b600080fd5b34801561014b57600080fd5b5061015560065481565b6040519081526020015b60405180910390f35b34801561017457600080fd5b50600454610188906001600160a01b031681565b6040516001600160a01b03909116815260200161015f565b3480156101ac57600080fd5b50600254610188906201000090046001600160a01b031681565b3480156101d257600080fd5b506002546101e590610100900460ff1681565b604051901515815260200161015f565b34801561020157600080fd5b5061020a6104f5565b005b34801561021857600080fd5b5061020a61022736600461162f565b610507565b34801561023857600080fd5b5060025460ff166101e5565b34801561025057600080fd5b5061020a6105ed565b34801561026557600080fd5b5061020a6105ff565b61020a61027c3660046116d0565b61060f565b34801561028d57600080fd5b506102ec61029c366004611723565b6005602081905260009182526040909120805460018201546002830154600384015460048501549585015460068601546007870154600890970154959760ff909516969395929493919290919089565b60408051998a5297151560208a0152968801959095526060870193909352608086019190915260a085015260c084015260e08301526101008201526101200161015f565b34801561033c57600080fd5b506000546001600160a01b0316610188565b34801561035a57600080fd5b506101e5610369366004611751565b610a63565b34801561037a57600080fd5b5061020a6103893660046117ad565b610ae9565b34801561039a57600080fd5b506101e56103a9366004611723565b610ba9565b3480156103ba57600080fd5b5061020a6103c93660046117ad565b610c92565b3480156103da57600080fd5b5061020a6103e93660046117ca565b610d58565b3480156103fa57600080fd5b5061040e610409366004611723565b610dd4565b60405161015f91906000610120820190508251825260208301511515602083015260408301516040830152606083015160608301526080830151608083015260a083015160a083015260c083015160c083015260e083015160e083015261010080840151818401525092915050565b34801561048957600080fd5b50600354610188906001600160a01b031681565b3480156104a957600080fd5b5061020a6104b83660046117ad565b610ead565b3480156104c957600080fd5b506101556104d83660046117f6565b600760209081526000928352604080842090915290825290205481565b6104fd610eeb565b610505610f18565b565b61050f610eeb565b6006805490600061051f8361183c565b909155505060068054600081815260056020818152604080842094855560018501805460ff19168e1515908117909155600286018d9055600386018c9055600486018b9055928501899055848601889055600885018790559454855190815290810191909152928301899052606083018890526080830187905260a0830186905260c0830185905260e08301526101008201839052907f742a6de8557256bd59fe4a22d3cc4cefefe3eb0a94494d9eed196e0ab496f51e906101200160405180910390a15050505050505050565b6105f5610eeb565b6105056000610f6a565b610607610eeb565b610505610fc7565b610617611004565b61061f61102e565b600254610100900460ff1661067b5760405162461bcd60e51b815260206004820152600f60248201527f6e6f7420696e697469616c697a6564000000000000000000000000000000000060448201526064015b60405180910390fd5b61068484610ba9565b6106d05760405162461bcd60e51b815260206004820152601060248201527f726f756e64206e6f7420616374697665000000000000000000000000000000006044820152606401610672565b6000848152600760209081526040808320338452909152902054156107375760405162461bcd60e51b815260206004820152601160248201527f616c7265616479206465706f73697465640000000000000000000000000000006044820152606401610672565b60008481526005602052604090206003810154841080159061075d575080600401548411155b6107a95760405162461bcd60e51b815260206004820152601460248201527f616d6f756e74206f7574206f6620626f756e64730000000000000000000000006044820152606401610672565b80600201548482600701546107be9190611855565b111561080c5760405162461bcd60e51b815260206004820152601960248201527f726f756e6420616c6c6f636174696f6e206578636565646564000000000000006044820152606401610672565b600181015460ff1615610875576108293384848460080154610a63565b6108755760405162461bcd60e51b815260206004820152600f60248201527f6e6f742077686974656c697374656400000000000000000000000000000000006044820152606401610672565b6002546201000090046001600160a01b031661089081611052565b156108e9578434146108e45760405162461bcd60e51b815260206004820152601f60248201527f616d6f756e74206d69736d6174636820776974682076616c75652073656e74006044820152606401610672565b610955565b34156109425760405162461bcd60e51b815260206004820152602260248201527f646f206e6f742073656e6420455448207769746820746f6b656e206465706f736044820152611a5d60f21b6064820152608401610672565b6109556001600160a01b0382168661108c565b60008681526007602090815260408083203384529091528120805487929061097e908490611855565b92505081905550848260070160008282546109999190611855565b90915550600090506109ab82876110f9565b6003546040516340c10f1960e01b8152336004820152602481018390529192506001600160a01b0316906340c10f1990604401600060405180830381600087803b1580156109f857600080fd5b505af1158015610a0c573d6000803e3d6000fd5b5050604080518a81523360208201529081018990527f1bfe99ad5ce4d1ae13655007c460a9d89b737f15b2ec86c60b1e531b76db69c59250606001905060405180910390a1505050610a5d60018055565b50505050565b6040516bffffffffffffffffffffffff19606086901b1660208201526000908190603401604051602081830303815290604052805190602001209050610adf85858080602002602001604051908101604052809392919081815260200183836020028082843760009201919091525087925085915061118b9050565b9695505050505050565b610af1610eeb565b6001600160a01b038116610b475760405162461bcd60e51b815260206004820152601b60248201527f6164647265737320697320746865207a65726f206164647265737300000000006044820152606401610672565b6003805473ffffffffffffffffffffffffffffffffffffffff19166001600160a01b0383169081179091556040519081527f9047b5ef06ee8770743e9df378cfdca6ebf2dbdc4cbf3741cccaf2218dc15b90906020015b60405180910390a150565b60006006548210610bfc5760405162461bcd60e51b815260206004820152601960248201527f726f756e6420696e646578206f7574206f6620626f756e6473000000000000006044820152606401610672565b60008281526005602081815260409283902083516101208101855281548152600182015460ff1615159281019290925260028101549382019390935260038301546060820152600483015460808201529082015460a08201819052600683015460c0830152600783015460e0830152600890920154610100820152904210801590610c8b57508060c001514211155b9392505050565b610c9a610eeb565b6001600160a01b038116610cf05760405162461bcd60e51b815260206004820152601b60248201527f6164647265737320697320746865207a65726f206164647265737300000000006044820152606401610672565b6002805475ffffffffffffffffffffffffffffffffffffffff00001916620100006001600160a01b038481168202929092179283905560405192041681527f5027c199ea59fb0ee1e2bff5f7166d9a7557c5298ae93241fa08d07df4107bc590602001610b9e565b610d60610eeb565b610d72826001600160a01b0316611052565b15610db6576004546040516001600160a01b039091169082156108fc029083906000818181858888f19350505050158015610db1573d6000803e3d6000fd5b505050565b600454610db1906001600160a01b038481169116836111a1565b5050565b610e2860405180610120016040528060008152602001600015158152602001600081526020016000815260200160008152602001600081526020016000815260200160008152602001600080191681525090565b610e30610eeb565b5060009081526005602081815260409283902083516101208101855281548152600182015460ff1615159281019290925260028101549382019390935260038301546060820152600483015460808201529082015460a0820152600682015460c0820152600782015460e082015260089091015461010082015290565b610eb5610eeb565b6001600160a01b038116610edf57604051631e4fbdf760e01b815260006004820152602401610672565b610ee881610f6a565b50565b6000546001600160a01b031633146105055760405163118cdaa760e01b8152336004820152602401610672565b610f2061121b565b6002805460ff191690557f5db9ee0a495bf2e6ff9c91a7834c1ba4fdd244a5e8aa4e537bd38aeae4b073aa335b6040516001600160a01b03909116815260200160405180910390a1565b600080546001600160a01b0383811673ffffffffffffffffffffffffffffffffffffffff19831681178455604051919092169283917f8be0079c531659141344cd1fd0a4f28419497f9722a3daafe3b4186f6b6457e09190a35050565b610fcf61102e565b6002805460ff191660011790557f62e78cea01bee320cd4e420270b5ea74000d11b0c9f74754ebdbfc544b05a258610f4d3390565b60026001540361102757604051633ee5aeb560e01b815260040160405180910390fd5b6002600155565b60025460ff16156105055760405163d93c066560e01b815260040160405180910390fd5b60006001600160a01b038216158061108657506001600160a01b03821673eeeeeeeeeeeeeeeeeeeeeeeeeeeeeeeeeeeeeeee145b92915050565b80600003611098575050565b6110a182611052565b156110e45780341115610dd057336108fc6110bc8334611868565b6040518115909202916000818181858888f19350505050158015610db1573d6000803e3d6000fd5b610dd06001600160a01b03831633308461123e565b60008061110e846001600160a01b03166112a5565b600354909150600090611129906001600160a01b03166112a5565b90508082111561115b5761113d8183611868565b61114890600a61195f565b611152908561196b565b92505050611086565b808210156111825761116d8282611868565b61117890600a61195f565b611152908561198d565b50919392505050565b600082611198858461141c565b14949350505050565b6000816000036111b357506001610c8b565b6111bc84611052565b156111fd576040516001600160a01b0384169083156108fc029084906000818181858888f193505050501580156111f7573d6000803e3d6000fd5b50611211565b6112116001600160a01b0385168484611469565b5060019392505050565b60025460ff1661050557604051638dfc202b60e01b815260040160405180910390fd5b6040516001600160a01b038481166024830152838116604483015260648201839052610a5d9186918216906323b872dd906084015b604051602081830303815290604052915060e01b6020820180516001600160e01b03838183161783525050505061149a565b60006112b082611052565b156112bd57506012919050565b60408051600481526024810182526020810180516001600160e01b031663313ce56760e01b179052905160009182916001600160a01b038616916127109161130591906119a4565b6000604051808303818686fa925050503d8060008114611341576040519150601f19603f3d011682016040523d82523d6000602084013e611346565b606091505b509150915081158061135757508051155b156113e75760408051600481526024810182526020810180516001600160e01b0316632e0f262560e01b17905290516001600160a01b038616916127109161139f91906119a4565b6000604051808303818686fa925050503d80600081146113db576040519150601f19603f3d011682016040523d82523d6000602084013e6113e0565b606091505b5090925090505b8180156113f5575060008151115b611400576012611414565b8080602001905181019061141491906119d3565b949350505050565b600081815b84518110156114615761144d82868381518110611440576114406119ec565b60200260200101516114fd565b9150806114598161183c565b915050611421565b509392505050565b6040516001600160a01b03838116602483015260448201839052610db191859182169063a9059cbb90606401611273565b60006114af6001600160a01b03841683611529565b905080516000141580156114d45750808060200190518101906114d29190611a02565b155b15610db157604051635274afe760e01b81526001600160a01b0384166004820152602401610672565b6000818310611519576000828152602084905260409020610c8b565b5060009182526020526040902090565b6060610c8b8383600084600080856001600160a01b0316848660405161154f91906119a4565b60006040518083038185875af1925050503d806000811461158c576040519150601f19603f3d011682016040523d82523d6000602084013e611591565b606091505b5091509150610adf8683836060826115b1576115ac826115f8565b610c8b565b81511580156115c857506001600160a01b0384163b155b156115f157604051639996b31560e01b81526001600160a01b0385166004820152602401610672565b5080610c8b565b8051156116085780518082602001fd5b604051630a12f52160e11b815260040160405180910390fd5b8015158114610ee857600080fd5b600080600080600080600060e0888a03121561164a57600080fd5b873561165581611621565b9960208901359950604089013598606081013598506080810135975060a0810135965060c00135945092505050565b60008083601f84011261169657600080fd5b50813567ffffffffffffffff8111156116ae57600080fd5b6020830191508360208260051b85010111156116c957600080fd5b9250929050565b600080600080606085870312156116e657600080fd5b8435935060208501359250604085013567ffffffffffffffff81111561170b57600080fd5b61171787828801611684565b95989497509550505050565b60006020828403121561173557600080fd5b5035919050565b6001600160a01b0381168114610ee857600080fd5b6000806000806060858703121561176757600080fd5b84356117728161173c565b9350602085013567ffffffffffffffff81111561178e57600080fd5b61179a87828801611684565b9598909750949560400135949350505050565b6000602082840312156117bf57600080fd5b8135610c8b8161173c565b600080604083850312156117dd57600080fd5b82356117e88161173c565b946020939093013593505050565b6000806040838503121561180957600080fd5b82359150602083013561181b8161173c565b809150509250929050565b634e487b7160e01b600052601160045260246000fd5b60006001820161184e5761184e611826565b5060010190565b8082018082111561108657611086611826565b8181038181111561108657611086611826565b600181815b808511156118b657816000190482111561189c5761189c611826565b808516156118a957918102915b93841c9390800290611880565b509250929050565b6000826118cd57506001611086565b816118da57506000611086565b81600181146118f057600281146118fa57611916565b6001915050611086565b60ff84111561190b5761190b611826565b50506001821b611086565b5060208310610133831016604e8410600b8410161715611939575081810a611086565b611943838361187b565b806000190482111561195757611957611826565b029392505050565b6000610c8b83836118be565b60008261198857634e487b7160e01b600052601260045260246000fd5b500490565b808202811582820484141761108657611086611826565b6000825160005b818110156119c557602081860181015185830152016119ab565b506000920191825250919050565b6000602082840312156119e557600080fd5b5051919050565b634e487b7160e01b600052603260045260246000fd5b600060208284031215611a1457600080fd5b8151610c8b8161162156fea264697066735822122088689c9c0a982ee2360457453e043f2d3874f41407e8c731a4c948ed5ad5e94664736f6c63430008140033",
  "linkReferences": {},
  "deployedLinkReferences": {}
}